:100000000C9463000C948B000C948B000C940D06E4
:100010000C940D060C940D060C948B000C948B0024
:100020000C948B000C948B000C948B000C948B0024
:100030000C948B000C948B000C948B000C948B0014
:100040000C94C3050C948B000C9491050C946B05D7
:100050000C948B000C948B000C948B000C948B00F4
:100060000C948B000C948B000000000024002700EF
:100070002A0000000008000201000003040700003D
:1000800000000000000000000000230026002900FE
:1000900000000000250028002B00040404040404D0
:1000A0000404020202020202030303030303010227
:1000B00004081020408001020408102001020408F6
:1000C00010208506090C11241FBECFEFD8E0DEBF3B
:1000D000CDBF23E0ACE5B2E001C01D92A739B20765
:1000E000E1F712E0A0E0B1E0ECE3FDE102C0059031
:1000F0000D92AC35B107D9F710E0C2E6D0E004C0EC
:100100002197FE010E94900CC136D107C9F70E94C9
:100110006D070C94910E0C940000AF92BF92CF9299
:10012000DF92EF92FF920F931F93CF93DF936C01B7
:100130007B018B01040F151FEB015E01AE18BF0898
:10014000C017D10759F06991D601ED91FC9101904A
:10015000F081E02DC6010995892B79F7C501DF9162
:10016000CF911F910F91FF90EF90DF90CF90BF90B4
:10017000AF900895FC01538D448D252F30E0842FDE
:1001800090E0821B930B541710F0CF9608950197BF
:100190000895FC01918D828D981761F0A28DAE0FAC
:1001A000BF2FB11D5D968C91928D9F5F9F73928F33
:1001B00090E008958FEF9FEF0895FC01918D828D5F
:1001C000981731F0828DE80FF11D858D90E008952C
:1001D0008FEF9FEF0895FC01918D228D892F90E084
:1001E000805C9F4F821B91098F739927089583EB41
:1001F00092E00E94EB0021E0892B09F420E0822F9D
:10020000089580E090E0892B29F00E94F700811189
:100210000C9400000895FC01A48DA80FB92FB11D06
:10022000A35ABF4F2C91848D90E001968F7399272C
:10023000848FA689B7892C93A089B1898C9183700A
:1002400080648C93938D848D981306C00288F38903
:10025000E02D80818F7D80830895EF92FF920F9330
:100260001F93CF93DF93EC0181E0888F9B8D8C8D62
:1002700098131AC0E889F989808185FF15C09FB756
:10028000F894EE89FF896083E889F9898081837019
:10029000806480839FBF81E090E0DF91CF911F91C8
:1002A0000F91FF90EF900895F62E0B8D10E00F5FE9
:1002B0001F4F0F731127E02E8C8D8E110CC00FB6BF
:1002C00007FCFACFE889F989808185FFF5CFCE0157
:1002D0000E940B01F1CFEB8DEC0FFD2FF11DE35AC6
:1002E000FF4FF0829FB7F8940B8FEA89FB898081DA
:1002F0008062CFCFCF93DF93EC01888D8823B9F054
:10030000AA89BB89E889F9898C9185FD03C0808120
:1003100086FD0DC00FB607FCF7CF8C9185FFF2CF9D
:10032000808185FFEDCFCE010E940B01E9CFDF91E7
:10033000CF91089590E0FC01EE58FF4F2491FC010D
:10034000E255FF4F3491FC01E656FF4FE491EE2356
:10035000C9F0222339F0233001F1A8F4213019F13A
:10036000223029F1F0E0EE0FFF1FE057FF4FA5917B
:10037000B4918FB7F894EC91611126C030953E236B
:100380003C938FBF08952730A9F02830C9F024305E
:1003900049F7809180008F7D03C0809180008F7726
:1003A00080938000DFCF84B58F7784BDDBCF84B5A9
:1003B0008F7DFBCF8091B0008F778093B000D2CF3C
:1003C0008091B0008F7DF9CF3E2BDACFCF93DF93B2
:1003D00090E0FC01E255FF4F249186569F4FFC01AF
:1003E00084918823D1F090E0880F991FFC01E8598F
:1003F000FF4FA591B491FC01E057FF4FC591D491F7
:1004000061110EC09FB7F8948C91E22FE0958E2376
:100410008C932881E223E8839FBFDF91CF910895D9
:100420008FB7F894EC91E22BEC938FBFF6CF3FB7E8
:10043000F89480919D0290919E02A0919F02B091AC
:10044000A00226B5A89B05C02F3F19F00196A11D5B
:10045000B11D3FBFBA2FA92F982F8827BC01CD010E
:10046000620F711D811D911D42E0660F771F881F6D
:10047000991F4A95D1F708958F929F92AF92BF929C
:10048000CF92DF92EF92FF924B015C010E94170224
:100490006B017C010E9417026C197D098E099F096E
:1004A000683E734081059105A8F321E0821A910806
:1004B000A108B10888EEC80E83E0D81EE11CF11C2B
:1004C00081149104A104B10429F7FF90EF90DF900B
:1004D000CF90BF90AF909F908F9008952091A302EE
:1004E0003091A4022817390771F49091A1028091EC
:1004F000A202981741F0E091A102F0E0E45AFD4F0A
:10050000808190E008958FEF9FEF08950895EF9216
:10051000FF920F931F93CF93DF93DC015C96ED90D6
:10052000FC905D97E114F10479F481E090E013967A
:100530009C938E93129790E080E0DF91CF911F9172
:100540000F91FF90EF9008955196ED91FC91529785
:1005500050968C915097982F90950FB75E962C914E
:100560005E97122F127021FD6095F894208111235F
:1005700019F1282B2083E7012197F1F728E0462F76
:1005800050E0308160FF1AC0382B3083E70121979B
:10059000F1F7BA0175956795215089F7112381F01C
:1005A0008081892380830FBF5C968D919C910197F8
:1005B000F1F781E090E0C1CF2923DCCF3923E5CFEB
:1005C0009081892BEFCF2091A3023091A4022817AC
:1005D000390771F48091A2022091A10290E0805C21
:1005E0009F4F821B910960E470E00E94680C08959F
:1005F00090E080E008952091A3023091A402281792
:100600003907B9F49091A1028091A202981789F05C
:10061000E091A102F0E0E45AFD4F80812091A10217
:1006200030E02F5F3F4F2F7333272093A10290E0DC
:1006300008958FEF9FEF08952FB7F8948091AF0240
:100640009091B002A091B102B091B2022FBF8093FD
:10065000640390936503A0936603B09367038CE5EE
:1006600093E00E94FB0297FF26C02FB7F894809179
:10067000AF029091B002A091B102B091B2022FBF2F
:100680004091640350916503609166037091670324
:10069000841B950BA60BB70B40916003509161032F
:1006A000609162037091630384179507A607B707EB
:1006B000B0F28FEF9FEF0895089590E080E00895E5
:1006C0000F931F93CF93DF938C01D0E0C0E061E0E4
:1006D00082E10E949A0164EF71E080E090E00E9464
:1006E0003C0260E082E10E949A0164EF71E080E0E8
:1006F00090E00E943C0221960C171D0741F7DF9104
:10070000CF911F910F910895CF93DF93EC0160E09B
:100710008E810E949A0161E08E810E949A0160E0C0
:100720008E810E949A018BE891E00197F1F7DF91A9
:10073000CF910895CF92DF92EF92FF920F931F9384
:10074000CF93DF936C017C0187E0E80EF11CD0E0D1
:10075000C0E0062F10E0B8010C2E02C07595679519
:100760000A94E2F76170F70181917F010E949A017A
:100770002196C430D10579F7C601DF91CF911F9141
:100780000F91FF90EF90DF90CF900C948403CF9265
:10079000DF92EF92FF920F931F93CF93DF93EC01C1
:1007A000F62E642F8C810E949A018D818F3F19F063
:1007B00060E00E949A010F2D10E08F8584FF25C014
:1007C0006E0187E0C80ED11CF12CE12CB8010E2C73
:1007D00002C0759567950A94E2F76170F601819100
:1007E0006F010E949A01FFEFEF1AFF0A88E0E816F6
:1007F000F10461F7CE01DF91CF911F910F91FF902E
:10080000EF90DF90CF900C948403B80184E075954D
:1008100067958A95E1F7CE010E949A036F2DCE016C
:10082000DF91CF911F910F91FF90EF90DF90CF90CC
:100830000C949A0340E0682F8BE793E00C94C70375
:1008400081E00E941A048BE39FE10197F1F708957C
:10085000CF93DF93823029F490918A03986090932C
:100860008A0380938E0310928F0380E48093900319
:1008700080E18093910380E58093920361E0809111
:100880007F030E94E601809180038F3F19F061E0B1
:100890000E94E60161E0809181030E94E601CBE7BE
:1008A000D3E09E012B57334080918A0384FD0BC017
:1008B00084E090E021962817390744F461E08E81A6
:1008C0000E94E601EECF88E090E0F4CF8BE39DE05C
:1008D0000197F1F760E080917F030E949A0160E048
:1008E000809181030E949A01809180038F3F19F0CB
:1008F00060E00E949A0180918A0384FD34C063E025
:100900008BE793E00E949A03CBE4D6E4CE010197F3
:10091000F1F763E08BE793E00E949A032197F1F7E8
:1009200063E08BE793E00E949A0383E592E00197EE
:10093000F1F762E08BE793E00E949A0380918A03CB
:1009400080620E941A0484E080938B038CE00E94F2
:100950001A040E94200482E080938C0386E0DF91D9
:10096000CF910C941A0480620E941A048BE496E4DE
:100970000197F1F780918A0380620E941A0483E54F
:1009800092E00197F1F780918A0380620E941A0435
:10099000D5CF90918E03891710F08FEF890FE82F34
:1009A000F0E0E558FC4F848980680C941A0441E01B
:1009B0000E94C70381E090E00895FB0101900020B0
:1009C000E9F73197AF01461B570BDC01ED91FC9124
:1009D0000280F381E02D0994CF93DF93BC018CE575
:1009E00093E00E94DD04EC0166E371E08CE593E0A6
:1009F0000E94DD048C0F9D1FDF91CF9108950C9410
:100A0000DD0420915A0330915B03232B39F421E05C
:100A1000FC018081882361F020E00AC0BC01809144
:100A20005603909157030E94810E21E0892BA1F774
:100A3000822F08950F931F93CF93DF93EC0188814A
:100A40009981009759F02A813B812617370730F0AA
:100A500081E0DF91CF911F910F9108958B016F5F1E
:100A60007F4F0E94BB0D009759F0998388831B83A9
:100A70000A832C813D81232B59F7FC011082E8CF9A
:100A800080E0E7CFCF93DF93EC01198218821B82BD
:100A90001A821D821C8270E060E00E941A05288183
:100AA000398181110FC02115310519F0C9010E944A
:100AB000320D198218821D821C821B821A82DF91DC
:100AC000CF9108951D821C8268E371E0C901DF9116
:100AD000CF910C948A0E1F920F920FB60F92112491
:100AE0002F933F934F935F936F937F938F939F9336
:100AF000AF93BF93EF93FF9383EB92E00E940B01C0
:100B0000FF91EF91BF91AF919F918F917F916F91E5
:100B10005F914F913F912F910F900FBE0F901F90BB
:100B200018951F920F920FB60F9211242F938F9347
:100B30009F93EF93FF93E091C302F091C4028081F1
:100B4000E091C902F091CA0282FD1BC090818091A0
:100B5000CC028F5F8F732091CD02821741F0E0911C
:100B6000CC02F0E0ED54FD4F958F8093CC02FF91C5
:100B7000EF919F918F912F910F900FBE0F901F902B
:100B800018958081F4CF1F920F920FB60F92112407
:100B90002F933F938F939F93AF93BF938091AF0217
:100BA0009091B002A091B102B091B20230919C023A
:100BB00023E0230F2D3758F50196A11DB11D209379
:100BC0009C028093AF029093B002A093B102B093C5
:100BD000B20280919D0290919E02A0919F02B091DD
:100BE000A0020196A11DB11D80939D0290939E02CB
:100BF000A0939F02B093A002BF91AF919F918F915C
:100C00003F912F910F900FBE0F901F90189526E8DF
:100C1000230F0296A11DB11DD2CF1F920F920FB6C6
:100C20000F9211242F933F934F935F936F937F9372
:100C30008F939F93AF93BF93EF93FF93E091A302A2
:100C4000F091A402309749F0A685B7858585968DE9
:100C500091FF14C09C918923A1F4FF91EF91BF9162
:100C6000AF919F918F917F916F915F914F913F9144
:100C70002F910F900FBE0F901F9018959C91892374
:100C800061F7A389B4899C918589809589238C9388
:100C9000868997890197F1F7608D718DA685B78553
:100CA000558538E020E0CB010197F1F7822F90E0E5
:100CB00095958795282F4C91452309F02068315050
:100CC00091F7868D81FD20958091A20290E001969A
:100CD0008F7399273091A102381799F0A091A20241
:100CE000B0E0A45ABD4F2C938093A202828D938DC5
:100CF0000197F1F7A389B4898C919589892B8C93FD
:100D0000ACCF868D8160868FF1CFCF92DF92EF924C
:100D1000FF921092B6021092B50298EEC92E93E09F
:100D2000D92EE12CF12CC092B702D092B802E092F9
:100D3000B902F092BA028AE091E09093B4028093F3
:100D4000B30285EC90E09093C0028093BF0284ECE4
:100D500090E09093C2028093C10280EC90E0909367
:100D6000C4028093C30281EC90E09093C60280930A
:100D7000C50282EC90E09093C8028093C70286EC93
:100D800090E09093CA028093C9021092CC02109214
:100D9000CD021092CE021092CF0210927E031092DA
:100DA0007D038EE291E090937C0380937B038DE042
:100DB00080937F038FEF809380038CE08093810387
:100DC00085E08093820384E08093830383E08093B3
:100DD000840382E080938503109286031092870338
:100DE000109288031092890310928A0381E00E9476
:100DF000280410925F0310925E03C0926003D092A9
:100E00006103E0926203F09263038CE191E09093BE
:100E10005D0380935C03109273031092720310922F
:100E20007503109274031092770310927603109258
:100E300079031092780360917A036E7F6D7F6093DF
:100E40007A036695617081E068278BE00E949A01C1
:100E500061E08BE00E94E601E9EBF0E0E491E093D1
:100E60006C03E5EAF0E0E491F0E0EE0FFF1FE057DD
:100E7000FF4F8591949190936E0380936D0360E092
:100E80008AE00E94E60180917A0381FD04C061E05E
:100E90008AE00E949A018AE080936803E8EBF0E020
:100EA000E491E0936903E4EAF0E0E491F0E0EE0F0E
:100EB000FF1FEA57FF4F8591949190936B038093A6
:100EC0006A0386E593E00E94420580E593E0FF9087
:100ED000EF90DF90CF900C944205CF93DF93CDB786
:100EE000DEB728970FB6F894DEBF0FBECDBF78945B
:100EF00084B5826084BD84B5816084BD85B582601F
:100F000085BD85B5816085BD80916E0081608093CF
:100F10006E00109281008091810082608093810038
:100F20008091810081608093810080918000816048
:100F3000809380008091B10084608093B1008091A3
:100F4000B00081608093B00080917A0084608093CB
:100F50007A0080917A00826080937A0080917A0092
:100F6000816080937A0080917A00806880937A0013
:100F70001092C100E091C302F091C40282E080832C
:100F8000E091BF02F091C0021082E091C102F091A5
:100F9000C2028FEC80831092CB02E091C702F091E5
:100FA000C80286E08083E091C502F091C60280818C
:100FB00080618083E091C502F091C60280818860E3
:100FC0008083E091C502F091C602808180688083B1
:100FD000E091C502F091C60280818F7D808382E01E
:100FE0000E942804109277031092760310927503E2
:100FF0001092740310927303109272038DE991E0C2
:10100000909379038093780390916803963108F068
:1010100047C02DEB30E030937303209372032BE92C
:1010200031E030937503209374032CE231E0309368
:101030007703209376032091680084E0983048F08D
:1010400031E09E3008F430E081E001C0880F3A952D
:10105000EAF7822B809368002DE630E0983050F05C
:101060002BE630E09E3030F02CE630E0963110F088
:1010700030E020E03093700320936F03292F30E09D
:10108000983008F0E4C181E001C0880F9A95EAF732
:101090008093710380917803909179030197F1F720
:1010A0008091760390917703892B49F1E091A30217
:1010B000F091A40223E0EC35F20709F1309739F002
:1010C000A389B4899C918589809589238C9380918B
:1010D0007A038E7F80937A031092A2021092A1026B
:1010E0008CE593E09093A4028093A302E0916F03B8
:1010F000F0917003808190917103892B808361E06E
:101100008EE00E94E60161E08FE00E94E60161E06E
:1011100080E10E94E60161E081E10E94E60161E078
:1011200082E10E94E60160E08EE00E949A0160E0A8
:101130008FE00E949A0160E080E10E949A0160E0E5
:1011400081E10E949A0160E082E10E949A010E947E
:10115000200480E00E94C90469E371E08BE793E01A
:101160000E94FF0481E00E94C90465E471E08BE7FE
:1011700093E00E94FF0460ED77E080E090E00E9441
:101180003C0282E00E9428040E94200480E00E9429
:10119000C90466E571E08BE793E00E94FF0486E6F0
:1011A00091E00E94EC0470E060E086E593E00E942C
:1011B0001A052091560330915703811155C121150D
:1011C000310519F0C9010E94320D10925703109297
:1011D000560310925B0310925A0310925903109217
:1011E00058036091AE028EE00E949A016091AD02B8
:1011F0008FE00E949A016091AC0280E10E949A0106
:101200006091AB0281E10E949A011092AA021092B1
:10121000A9028091A9029091AA02049724F62FB7FF
:10122000F8948091AF029091B002A091B102B09178
:10123000B2022FBF4091A5025091A6026091A70271
:101240007091A802841B950BA60BB70B813D9740AC
:10125000A105B10508F4A8C02FB7F8948091AF029A
:101260009091B002A091B102B091B2022FBF8093D1
:10127000A5029093A602A093A702B093A802809122
:10128000A9029091AA02892BE9F481E00E94C90485
:1012900068E771E08BE793E00E94FF048091AE0263
:1012A000882331F065EB71E08BE793E00E94FF0447
:1012B0008091AE02811106C066EF71E08BE793E08A
:1012C0000E94FF048091A9029091AA020197E9F47B
:1012D00081E00E94C90461E871E08BE793E00E941D
:1012E000FF048091AD02882331F065EB71E08BE75C
:1012F00093E00E94FF048091AD02811106C066EF69
:1013000071E08BE793E00E94FF048091A902909125
:10131000AA020297E9F481E00E94C9046AE871E038
:101320008BE793E00E94FF048091AC02882331F0A8
:1013300065EB71E08BE793E00E94FF048091AC02C3
:10134000811106C066EF71E08BE793E00E94FF0415
:101350008091A9029091AA020397E9F481E00E948A
:10136000C90463E971E08BE793E00E94FF04809178
:10137000AB02882331F065EB71E08BE793E00E94CC
:10138000FF048091AB02811106C066EF71E08BE72C
:1013900093E00E94FF048091A9029091AA02019615
:1013A0009093AA028093A9028CE593E00E94E30245
:1013B000892B09F495C08CE593E00E94FB028A9783
:1013C00009F08EC08CE593E00E94E302892BD1F3F3
:1013D0001A8219821C821B821E821D8270E060E0CC
:1013E000CE0101960E941A0529813A81811146C0D9
:1013F0002115310519F0C9010E94320D1A82198296
:101400001E821D821C821B820E941C036D817E81B4
:1014100097FD3CC083329105C9F18F8318868B01FB
:101420000F5F1F4FB801CE0101960E941A05882355
:1014300059F329813A818D819E81BE01695F7F4F79
:10144000820F931F0E948A0E1E830D83DDCF9E3074
:1014500040F42850310981E001C0880F2A95EAF74D
:1014600017CE2E503109F7CF10925B0310925A031A
:1014700068E371E0C9010E948A0EB3CE1E821D820C
:1014800068E371E0C9010E948A0EBECFE980FA804C
:10149000E114F10409F161157105F1F000915A03AD
:1014A00010915B03060F171FB80186E593E00E94B9
:1014B0001A05882389F020915603309157038091B3
:1014C0005A0390915B03B701820F931F0E948A0E0B
:1014D00010935B0300935A0389819A810E94320D15
:1014E00089E991E00E9401058823D1F080E00E9403
:1014F000C9046EE971E08BE793E00E94FF0481E08C
:101500000E94C9046DEA71E08BE793E00E94FF043A
:1015100085E090E00E94600381E08093AE0231CECE
:1015200089EB91E00E9401058823D1F080E00E94C0
:10153000C9046EE971E08BE793E00E94FF0481E04B
:101540000E94C9046EEB71E08BE793E00E94FF04F8
:1015500085E090E00E94600381E08093AD0211CEAF
:101560008AEC91E00E9401058823D1F080E00E947E
:10157000C9046EE971E08BE793E00E94FF0481E00B
:101580000E94C9046FEC71E08BE793E00E94FF04B6
:1015900085E090E00E94600381E08093AC02F1CD91
:1015A0008BED91E00E9401058823D1F080E00E943C
:1015B000C9046EE971E08BE793E00E94FF0481E0CB
:1015C0000E94C9046FED71E08BE793E00E94FF0475
:1015D00085E090E00E94600381E08093AB02D1CD72
:1015E00088EE91E00E9401058823C9F080E00E9406
:1015F000C9046EE971E08BE793E00E94FF0481E08B
:101600000E94C9046EEE71E08BE793E00E94FF0434
:1016100085E090E00E9460031092AE02B2CD8BEFA5
:1016200091E00E9401058823C9F080E00E94C9046E
:101630006EE971E08BE793E00E94FF0481E00E9475
:10164000C9046EEE71E08BE793E00E94FF0485E031
:1016500090E00E9460031092AD0293CD81E092E091
:101660000E9401058823C9F080E00E94C9046EE948
:1016700071E08BE793E00E94FF0481E00E94C904BF
:101680006EEE71E08BE793E00E94FF0485E090E04E
:101690000E9460031092AC0274CD87E092E00E9439
:1016A00001058823C9F080E00E94C9046EE971E059
:1016B0008BE793E00E94FF0481E00E94C9046CE084
:1016C00072E08BE793E00E94FF0485E090E00E94C7
:1016D00060031092AB0255CD86E192E00E940105B5
:1016E000882309F496CD80E00E94C9046EE971E078
:1016F0008BE793E00E94FF0481E00E94C9046DE142
:1017000072E08BE793E00E94FF048EE292E00E9479
:10171000EC0482E090E00E94600388E392E00E9483
:10172000EC0482E090E00E94600369E771E08CE5E0
:1017300093E00E94FF048091AE02882321F081E5AE
:1017400092E00E94EC048091AE02811104C086E513
:1017500092E00E94EC0462E871E08CE593E00E9464
:10176000FF048091AD02882321F081E592E00E9480
:10177000EC048091AD02811104C086E592E00E94E4
:10178000EC046BE871E08CE593E00E94FF0480912B
:10179000AC02882321F081E592E00E94EC04809164
:1017A000AC02811104C086E592E00E94EC0464E979
:1017B00071E08CE593E00E94FF048091AB028823E6
:1017C00021F081E592E00E94EC048091AB0281114E
:1017D00004C086E592E00E94EC0482E090E00E9462
:1017E00060036AE18CE593E00E94870266E371E0A2
:1017F0008CE593E00E94DD0482E090E00E946003AB
:1018000086E691E00E94EC0482E090E00E94600392
:10181000B8CC80915003909151030E94320D809179
:101820005603909157030E94320D8CE191E0909302
:101830005D0380935C038091A3029091A4028C5578
:10184000934071F4E0916F03F09170039081809167
:1018500071038095892380831092A4021092A302C1
:1018600008952F923F924F925F926F927F928F9244
:101870009F92AF92BF92CF92DF92EF92FF920F931F
:101880001F93CF93DF93CDB7DEB7CA1BDB0B0FB629
:10189000F894DEBF0FBECDBF09942A8839884888E6
:1018A0005F846E847D848C849B84AA84B984C8847C
:1018B000DF80EE80FD800C811B81AA81B981CE0F73
:1018C000D11D0FB6F894DEBF0FBECDBFED01089558
:1018D00097FB072E16F4009407D077FD09D00E94DD
:1018E0007C0C07FC05D03EF4909581959F4F0895A0
:1018F000709561957F4F0895AA1BBB1B51E107C0EE
:10190000AA1FBB1FA617B70710F0A61BB70B881F8F
:10191000991F5A95A9F780959095BC01CD0108951E
:10192000EE0FFF1F0590F491E02D09940F931F9384
:10193000CF93DF938230910510F482E090E0E09144
:101940009503F091960330E020E0B0E0A0E03097FE
:1019500099F42115310509F44AC0281B390B2430AC
:101960003105D8F58A819B816115710589F1FB01EB
:1019700093838283FE0111C04081518102811381D2
:1019800048175907E0F04817590799F4109761F084
:1019900012960C93129713961C933296CF01DF91F7
:1019A000CF911F910F910895009395031093960383
:1019B000F4CF2115310551F04217530738F0A90132
:1019C000DB019A01BD01DF01F801C1CFEF01F9CFC1
:1019D0009093960380939503CDCFFE01E20FF31F02
:1019E000819391932250310939832883D7CF209155
:1019F000930330919403232B41F420910201309101
:101A000003013093940320939303209100013091BC
:101A100001012115310541F42DB73EB74091040174
:101A200050910501241B350BE0919303F091940331
:101A3000E217F307A0F42E1B3F0B2817390778F0A5
:101A4000AC014E5F5F4F2417350748F04E0F5F1F04
:101A50005093940340939303819391939FCFF0E02D
:101A6000E0E09CCFCF93DF930097E9F0FC01329741
:101A700013821282A0919503B0919603ED0130E09C
:101A800020E01097A1F420813181820F931F2091D3
:101A90009303309194032817390709F061C0F0933C
:101AA0009403E0939303DF91CF910895EA01CE1759
:101AB000DF07E8F54A815B819E0141155105B1F7C9
:101AC000E901FB83EA8349915991C40FD51FEC17B3
:101AD000FD0761F4808191810296840F951FE901D1
:101AE00099838883828193819B838A83F0E0E0E0FD
:101AF00012968D919C9113970097B9F52D913C9179
:101B00001197CD010296820F931F2091930330917C
:101B100094032817390739F6309751F51092960338
:101B200010929503B0939403A0939303BCCFD383F7
:101B3000C28340815181840F951FC817D90761F472
:101B40004E5F5F4F88819981480F591F51834083B1
:101B50008A819B81938382832115310509F0B0CF5F
:101B6000F0939603E09395039ECFFD01DC01C0CF77
:101B700013821282D7CFB0E0A0E0E1ECFDE00C943C
:101B8000330C8C01009751F4CB010E94960C8C0110
:101B9000C801CDB7DEB7E0E10C944F0CFC01E60FB5
:101BA000F71F9C0122503109E217F30708F49DC08A
:101BB000D901CD91DC911197C617D70798F0C530A0
:101BC000D10530F3CE0104978617970708F3C61B9B
:101BD000D70B2297C193D1936D937C93CF010E9431
:101BE000320DD6CF5B01AC1ABD0A4C018C0E9D1E86
:101BF000A0919503B0919603512C412CF12CE12C2E
:101C0000109731F58091930390919403881599056D
:101C100009F05CC04616570608F058C080910001D4
:101C200090910101009741F48DB79EB74091040156
:101C300050910501841B950BE817F90708F055C072
:101C4000F0939403E0939303F90171836083A0CF31
:101C50008D919C91119712966C90129713967C908F
:101C60001397A815B90559F56C0142E0C40ED11CB3
:101C7000CA14DB0420F1AC014A195B09DA0112969F
:101C8000159780F06282738251834083D9016D93EE
:101C90007C93E114F10471F0D7011396FC93EE9359
:101CA000129776CF22968C0F9D1FF9019183808326
:101CB000F301EFCFF0939603E093950369CF4816B5
:101CC000590608F42C017D01D3019ACFCB010E9463
:101CD000960C7C01009749F0AE01B8010E94780E85
:101CE000C8010E94320D870153CF10E000E050CFB1
:101CF000FB01DC0102C001900D9241505040D8F729
:101D00000895FB01DC018D91019080190110D9F338
:101D1000990B0895FB01DC0101900D920020E1F781
:101D2000089510E0C2E6D0E004C0FE010E94900CCD
:0C1D30002196C336D107C9F7F894FFCF05
:101D3C00000097038000000000002D018D00BA0008
:101D4C007A01EB00C900DD000000000087028D0065
:101D5C005D038602E302FB026E0200000000D70462
:101D6C008D005D035C030D0A002047534D2042415A
:101D7C00534544200020484F4D45204155544F4D6C
:101D8C004154494F4E002044455649434520535435
:101D9C0041545553200041542B434E4D493D322C58
:101DAC00322C302C302C30002042554C422031202B
:101DBC00002042554C42203220002042554C4220FB
:101DCC003320002046414E200042314F4E0020531C
:101DDC004D53205245434549564544200020425519
:101DEC004C422031204F4E200042324F4E002042B8
:101DFC00554C422032204F4E200042334F4E002093
:101E0C0042554C422033204F4E2000464F4E00206E
:101E1C0046414E204F4E200042314F464600204254
:101E2C00554C422031204F4646200042324F464608
:101E3C000042334F464600464F4646002046414E30
:101E4C00204F4646200053544154555300205345CF
:101E5C004E44494E4720535441545553200041544D
:101E6C002B434D47463D310041542B434D47533D89
:101E7C00222B393138313239363133363337220D62
:0C1E8C00004F4E200A004F4646200A007E
:107E0000112484B714BE81FFF0D085E080938100F7
:107E100082E08093C00088E18093C10086E0809377
:107E2000C20080E18093C4008EE0C9D0259A86E02C
:107E300020E33CEF91E0309385002093840096BBD3
:107E4000B09BFECF1D9AA8958150A9F7CC24DD24C4
:107E500088248394B5E0AB2EA1E19A2EF3E0BF2EE7
:107E6000A2D0813461F49FD0082FAFD0023811F036
:107E7000013811F484E001C083E08DD089C08234E0
:107E800011F484E103C0853419F485E0A6D080C0E4
:107E9000853579F488D0E82EFF2485D0082F10E0AE
:107EA000102F00270E291F29000F111F8ED06801E7
:107EB0006FC0863521F484E090D080E0DECF843638
:107EC00009F040C070D06FD0082F6DD080E0C81688
:107ED00080E7D80618F4F601B7BEE895C0E0D1E017
:107EE00062D089930C17E1F7F0E0CF16F0E7DF06D8
:107EF00018F0F601B7BEE89568D007B600FCFDCFD4
:107F0000A601A0E0B1E02C9130E011968C91119780
:107F100090E0982F8827822B932B1296FA010C0160
:107F200087BEE89511244E5F5F4FF1E0A038BF0790
:107F300051F7F601A7BEE89507B600FCFDCF97BE46
:107F4000E89526C08437B1F42ED02DD0F82E2BD052
:107F50003CD0F601EF2C8F010F5F1F4F84911BD097
:107F6000EA94F801C1F70894C11CD11CFA94CF0C13
:107F7000D11C0EC0853739F428D08EE10CD085E9AC
:107F80000AD08FE07ACF813511F488E018D01DD067
:107F900080E101D065CF982F8091C00085FFFCCF94
:107FA0009093C60008958091C00087FFFCCF809118
:107FB000C00084FD01C0A8958091C6000895E0E648
:107FC000F0E098E1908380830895EDDF803219F02E
:107FD00088E0F5DFFFCF84E1DECF1F93182FE3DFCA
:107FE0001150E9F7F2DF1F91089580E0E8DFEE27F6
:047FF000FF270994CA
:027FFE00040479
:0400000300007E007B
:00000001FF
