:100000000C9462000C948A000C948A000C948A0070
:100010000C948A000C948A000C948A000C948A0038
:100020000C948A000C948A000C948A000C948A0028
:100030000C948A000C948A000C948A000C948A0018
:100040000C94F5010C948A000C9465020C943F0208
:100050000C948A000C948A000C948A000C948A00F8
:100060000C948A000C948A000000000024002700F1
:100070002A000000000023002600290000000000E4
:10008000250028002B0004040404040404040202D4
:100090000202020203030303030301020408102007
:1000A0004080010204081020010204081020000012
:1000B0000008000201000003040700000000000027
:1000C0000000A70311241FBECFEFD8E0DEBFCDBFD5
:1000D00011E0A0E0B1E0E8EBF7E002C005900D927E
:1000E000A034B107D9F721E0A0E4B1E001C01D922E
:1000F000A83EB207E1F710E0C2E6D0E004C02197C5
:10010000FE010E94D403C136D107C9F70E949702AD
:100110000C94DA030C940000AF92BF92CF92DF925E
:10012000EF92FF920F931F93CF93DF936C017B01AC
:100130008B01040F151FEB015E01AE18BF08C0173D
:10014000D10759F06991D601ED91FC910190F081B0
:10015000E02DC6010995892B79F7C501DF91CF9173
:100160001F910F91FF90EF90DF90CF90BF90AF90D5
:100170000895FC01538D448D252F30E0842F90E0AD
:10018000821B930B541710F0CF9608950197089592
:10019000FC01918D828D981761F0A28DAE0FBF2F5B
:1001A000B11D5D968C91928D9F5F9F73928F90E0B1
:1001B00008958FEF9FEF0895FC01918D828D981720
:1001C00031F0828DE80FF11D858D90E008958FEF5D
:1001D0009FEF0895FC01918D228D892F90E0805C26
:1001E0009F4F821B91098F73992708958BE491E0AB
:1001F0000E94EA0021E0892B09F420E0822F089573
:1002000080E090E0892B29F00E94F60081110C9487
:1002100000000895FC01A48DA80FB92FB11DA35AA9
:10022000BF4F2C91848D90E001968F739927848F16
:10023000A689B7892C93A089B1898C918370806439
:100240008C93938D848D981306C00288F389E02DDA
:1002500080818F7D80830895EF92FF920F931F938B
:10026000CF93DF93EC0181E0888F9B8D8C8D981369
:100270001AC0E889F989808185FF15C09FB7F89475
:10028000EE89FF896083E889F989808183708064C1
:1002900080839FBF81E090E0DF91CF911F910F910C
:1002A000FF90EF900895F62E0B8D10E00F5F1F4F1B
:1002B0000F731127E02E8C8D8E110CC00FB607FC2A
:1002C000FACFE889F989808185FFF5CFCE010E94B8
:1002D0000A01F1CFEB8DEC0FFD2FF11DE35AFF4F1B
:1002E000F0829FB7F8940B8FEA89FB898081806246
:1002F000CFCFCF93DF93EC01888D8823B9F0AA8903
:10030000BB89E889F9898C9185FD03C0808186FDD0
:100310000DC00FB607FCF7CF8C9185FFF2CF80811F
:1003200085FFEDCFCE010E940A01E9CFDF91CF9189
:100330000895833081F028F4813099F08230A9F05B
:1003400008958730A9F08830C9F08430B1F48091E5
:1003500080008F7D03C0809180008F778093800024
:10036000089584B58F7784BD089584B58F7DFBCFC4
:100370008091B0008F778093B00008958091B00095
:100380008F7DF9CF1F93CF93DF93E5EBF0E094914E
:10039000E1EAF0E0D491EDE8F0E0C491CC23B9F0CB
:1003A000182F992319F0892F0E949901EC2FF0E062
:1003B000EE0FFF1FE458FF4FA591B4918FB7F8944B
:1003C000EC91111108C0D095DE23DC938FBFDF9133
:1003D000CF911F910895DE2BF8CF42E050E062E10B
:1003E00071E08BE491E00C948C001F920F920FB699
:1003F0000F9211242F933F938F939F93AF93BF93AB
:100400008091470190914801A0914901B0914A0122
:100410003091460123E0230F2D3758F50196A11D99
:10042000B11D209346018093470190934801A0930A
:100430004901B0934A018091420190914301A091FA
:100440004401B09145010196A11DB11D8093420167
:1004500090934301A0934401B0934501BF91AF91A4
:100460009F918F913F912F910F900FBE0F901F90F2
:10047000189526E8230F0296A11DB11DD2CF1F9219
:100480000F920FB60F9211242F933F934F935F93C8
:100490006F937F938F939F93AF93BF93EF93FF934C
:1004A0008BE491E00E940A01FF91EF91BF91AF911F
:1004B0009F918F917F916F915F914F913F912F917C
:1004C0000F900FBE0F901F9018951F920F920FB6AE
:1004D0000F9211242F938F939F93EF93FF93E091AB
:1004E0005B01F0915C018081E0916101F09162011A
:1004F00082FD1BC09081809164018F5F8F7320917A
:100500006501821741F0E0916401F0E0E55BFE4F88
:10051000958F80936401FF91EF919F918F912F911F
:100520000F900FBE0F901F9018958081F4CF789494
:1005300084B5826084BD84B5816084BD85B58260E8
:1005400085BD85B5816085BD80916E008160809399
:100550006E00109281008091810082608093810002
:100560008091810081608093810080918000816012
:10057000809380008091B10084608093B10080916D
:10058000B00081608093B00080917A008460809395
:100590007A0080917A00826080937A0080917A005C
:1005A000816080937A0080917A00806880937A00DD
:1005B0001092C100E0915B01F0915C0182E08083C8
:1005C000E0915701F09158011082E0915901F091AA
:1005D0005A018FEC808310926301E0915F01F091EA
:1005E000600186E08083E0915D01F0915E01808191
:1005F00080618083E0915D01F0915E01808188607F
:100600008083E0915D01F0915E018081806880834C
:10061000E0915D01F0915E0180818F7D8083C2EA6F
:10062000D0E0FE0124910EE810E0F80184918823C7
:10063000C9F090E0880F991FFC01E859FF4FA59180
:10064000B491FC01E458FF4F459154913FB7F894A1
:100650009C91822F809598239C93FA019081892305
:1006600080833FBFE1EAF0E02491EDE8F0E084917F
:10067000882399F090E0880F991FFC01E859FF4FFB
:10068000A591B491FC01E458FF4F859194918FB7E7
:10069000F894EC91E22BEC938FBF96EBE92E90E06F
:1006A000F92E20E0C22E20E0D22EF7018491FE0127
:1006B000A490F801B490BB2009F43BC081110E94C2
:1006C0009901EB2DF0E0EE0FFF1FEE58FF4FA591C3
:1006D000B4918C91A82269F18091400190914101DF
:1006E0000197D9F081E00E94C20145E150E065E147
:1006F00071E08BE491E00E948C000E94ED0181E0AA
:1007000090E02091400130914101232B11F090E0C5
:1007100080E09093410180934001C114D10409F419
:10072000C4CF0E94F600882309F4BFCF0E940000C6
:10073000BCCF8091400190914101892B71F380E001
:100740000E94C20144E150E06BE271E0D2CFEBE4E1
:10075000F1E01382128288EE93E0A0E0B0E084839F
:100760009583A683B78384E091E09183808385ECB1
:1007700090E09587848784EC90E09787868780EC6B
:1007800090E0918B808B81EC90E0938B828B82EC5C
:1007900090E0958B848B86EC90E0978B868B118E06
:1007A000128E138E148E0895EE0FFF1F0590F49194
:0807B000E02D0994F894FFCF3D
:1007B800000000002C018C00B9007901EA00C80093
:1007C800DC000D0A00546572646574656B736920FA
:1007D8004173617020526F6B6F6B00546964616B79
:1007E80020616461206173617020726F6B6F6B00B0
:107E0000112484B714BE81FFF0D085E080938100F7
:107E100082E08093C00088E18093C10086E0809377
:107E2000C20080E18093C4008EE0C9D0259A86E02C
:107E300020E33CEF91E0309385002093840096BBD3
:107E4000B09BFECF1D9AA8958150A9F7CC24DD24C4
:107E500088248394B5E0AB2EA1E19A2EF3E0BF2EE7
:107E6000A2D0813461F49FD0082FAFD0023811F036
:107E7000013811F484E001C083E08DD089C08234E0
:107E800011F484E103C0853419F485E0A6D080C0E4
:107E9000853579F488D0E82EFF2485D0082F10E0AE
:107EA000102F00270E291F29000F111F8ED06801E7
:107EB0006FC0863521F484E090D080E0DECF843638
:107EC00009F040C070D06FD0082F6DD080E0C81688
:107ED00080E7D80618F4F601B7BEE895C0E0D1E017
:107EE00062D089930C17E1F7F0E0CF16F0E7DF06D8
:107EF00018F0F601B7BEE89568D007B600FCFDCFD4
:107F0000A601A0E0B1E02C9130E011968C91119780
:107F100090E0982F8827822B932B1296FA010C0160
:107F200087BEE89511244E5F5F4FF1E0A038BF0790
:107F300051F7F601A7BEE89507B600FCFDCF97BE46
:107F4000E89526C08437B1F42ED02DD0F82E2BD052
:107F50003CD0F601EF2C8F010F5F1F4F84911BD097
:107F6000EA94F801C1F70894C11CD11CFA94CF0C13
:107F7000D11C0EC0853739F428D08EE10CD085E9AC
:107F80000AD08FE07ACF813511F488E018D01DD067
:107F900080E101D065CF982F8091C00085FFFCCF94
:107FA0009093C60008958091C00087FFFCCF809118
:107FB000C00084FD01C0A8958091C6000895E0E648
:107FC000F0E098E1908380830895EDDF803219F02E
:107FD00088E0F5DFFFCF84E1DECF1F93182FE3DFCA
:107FE0001150E9F7F2DF1F91089580E0E8DFEE27F6
:047FF000FF270994CA
:027FFE00040479
:0400000300007E007B
:00000001FF
